:020000040800F2
:10000000E819002021030008F5040008ED040008A9
:10001000F1040008CD0300082108000800000000DA
:100020000000000000000000000000003502000891
:10003000D103000800000000BD0200080D03000805
:100040003B0300083B0300083B0300083B03000898
:100050003B0300083B0300083B0300083B03000888
:100060003B0300083B0300083B0300083B03000878
:100070003B0300083B0300083B0300083B03000868
:100080003B0300083B0300083B0300083B03000858
:100090003B0300083B0300083B0300083B03000848
:1000A0003B0300083B0300083B0300083B03000838
:1000B0003B0300083B0300083B0300083B03000828
:1000C0003B0300083B0300083B0300083B03000818
:1000D0003B0300083B0300083B0300083B03000808
:1000E0003B0300083B0300083B0300083B030008F8
:1000F0003B0300083B0300083B0300083B030008E8
:100100003B0300083B0300083B0300083B030008D7
:100110003B0300083B0300083B0300083B030008C7
:100120003B0300083B0300083B0300083B030008B7
:1001300000F002F800F03AF80AA090E8000C8244BF
:100140008344AAF10107DA4501D100F02FF8AFF29C
:10015000090EBAE80F0013F0010F18BFFB1A43F0A5
:1001600001031847D0140000F0140000103A24BF17
:1001700078C878C1FAD8520724BF30C830C144BF0C
:1001800004680C607047000000230024002500264E
:10019000103A28BF78C1FBD8520728BF30C148BFEA
:1001A0000B6070471FB51FBD10B510BD00F0E0F823
:1001B0001146FFF7F7FF00F0F1FC00F0FEF803B482
:1001C000FFF7F2FF03BC00F06FFB000080F309882B
:1001D0007047EFF309807047684680F30988044848
:1001E0000078C00714BF0220032080F314887047F2
:1001F00018160008DFF818C0EFF305831B0618BFB8
:100200006047EFF31483DB0708BF604700DF7047E8
:10021000FD0B0008DFF818C0EFF305831B0618BFBD
:100220006047EFF31483DB0708BF604700DF7047C8
:10023000A50D0008EFF30980816911F8021C39BB94
:1002400090E80F10E047EFF3098C194B93E8060094
:10025000914218D059B10CB44FF0010381F8263007
:100260002CE9F00FC1F82CC001F024F80CBC1A6086
:10027000D2F82CC0BCE8F00F92F826308CF3098835
:100280001BB192F82500CCF800006FF0020E704709
:1002900010B5084A1268914209D8074C54F8214019
:1002A00090E80F10A047EFF3098C8CE80F0010BD09
:1002B00024000020C8030008C803000800F012FF53
:1002C000114B93E8060091421BD00CB44FF0000391
:1002D00081F82630EFF3098C2CE9F00FC1F82CC01F
:1002E00000F0E8FF0CBC1A60D2F82CC0BCE8F00F9C
:1002F0008CF3098892F826301BB192F82530CCF89F
:1003000000306FF0020E70472400002001F0A2F8C8
:10031000D6E7000000F070FC01F09CF8D0E7000088
:100320000948804709480047FEE7FEE7FEE7FEE789
:10033000FEE7FEE7FEE7FEE7FEE7FEE704480549C5
:10034000054A064B70470000D1060008310100083D
:10035000E8130020E8190020E8150020E815002027
:1003600000487047841300207047704770477047FB
:100370007546FFF7F5FFAE4605006946534620F087
:100380000700854618B020B5FFF7D8FFBDE820402C
:100390004FF000064FF000074FF000084FF0000B41
:1003A00021F00701AC46ACE8C009ACE8C009ACE8F4
:1003B000C009ACE8C0098D4670470446AFF3008021
:1003C0002046FFF7FCFE00000000000000BFFEE733
:1003D00070472DE9F0410246002500260020002349
:1003E0000024002791F803C00CF00F0591F803C01A
:1003F0001CF0100F03D091F802C04CEA050591F8EB
:1004000000C0BCF1000F31D0146800202BE04FF089
:10041000010C0CFA00F3B1F800C00CEA03069E428E
:1004200020D183004FF00F0C0CFA03F7BC4305FA00
:1004300003FC4CEA040491F803C0BCF1280F06D178
:100440004FF0010C0CFA00FCC2F814C00AE091F85D
:1004500003C0BCF1480F05D14FF0010C0CFA00FCB1
:10046000C2F810C0401C0828D1D31460B1F800C0F5
:10047000BCF1FF0F34DD546800202EE000F1080CC1
:100480004FF0010808FA0CF3B1F800C00CEA0306BB
:100490009E4221D183004FF00F0C0CFA03F7BC43AE
:1004A00005FA03FC4CEA040491F803C0BCF1280FE0
:1004B00005D100F1080C08FA0CF8C2F8148091F884
:1004C00003C0BCF1480F07D100F1080C4FF0010840
:1004D00008FA0CF8C2F81080401C0828CED35460EB
:1004E000BDE8F081416170470161704700BFFEE7E0
:1004F00000BFFEE77047000029B1064A9269024337
:10050000044B9A6104E0034A92698243014B9A6169
:10051000704700000010024030B500210022002486
:1005200000232D4D6D6805F00C0121B1042905D083
:10053000082923D105E0294D056022E0274D0560FB
:100540001FE0254D6D6805F47012234D6D6805F4AC
:100550008034022505EB92421CB9214D55430560BC
:100560000BE01D4D6D6815F4003F03D01C4D554345
:10057000056002E0194D5543056002E0174D056026
:1005800000BF00BF144D6D6805F0F0010909154D5D
:100590006B5C0568DD4045600F4D6D6805F4E061FA
:1005A000090A104D6B5C4568DD4085600A4D6D6839
:1005B00005F46051C90A0B4D6B5C4568DD40C560B0
:1005C000054D6D6805F44041890B074D6B5CC568AE
:1005D000B5FBF3F5056130BD0010024000127A0052
:1005E00000093D00080000201800002010B500F0B0
:1005F00001F810BD0CB50020019000903248006851
:1006000040F480303049086000BF2F48006800F493
:10061000003000900198401C0190009818B9019892
:10062000B0F5A06FF1D12848006810F4003F02D067
:100630000120009001E0002000900098012842D1A4
:100640002248006840F01000204908600846006811
:1006500020F0030008600846006840F002000860CF
:10066000194840681849486008464068486008468C
:10067000406840F4806048600846406820F47C1080
:1006800048600846406840F4E81048600846006842
:1006900040F08070086000BF0B48006810F0007FD9
:1006A000FAD00948406820F003000749486008462E
:1006B000406840F00200486000BF0348406800F016
:1006C0000C000828F9D10CBD0010024000200240A7
:1006D00010B51348006840F0010011490860084651
:1006E0004068104908400E494860084600680E49B5
:1006F00008400B4908600846006820F48020086024
:100700000846406820F4FE0048604FF41F008860EF
:10071000FFF76CFF4FF000600449086010BD000057
:10072000001002400000FFF8FFFFF6FE08ED00E0B9
:1007300021B1828942F40052828104E082894DF61F
:10074000FF731A40828170472DE9F04786B0054655
:100750000E460024A24600BFA1460027B08900B182
:1007600000BF2F462C8A4CF6FF700440F0880443EB
:100770002C82AC894EF6F3100440B08831890843CE
:10078000718908430443AC81AC8A4FF6FF400440B2
:10079000B0890443AC8201A8FFF7BEFE1F48874220
:1007A00002D1DDF810A001E0DDF80CA0A88910F45A
:1007B000004F08D00AEBCA0000EB0A10316849006C
:1007C000B0FBF1F807E00AEBCA0000EB0A10316851
:1007D0008900B0FBF1F86420B8FBF0F004012009B7
:1007E000642101FB1089A88910F4004F08D0322041
:1007F00000EBC900B0FBF1F000F00700044308E093
:10080000322000EB09106421B0FBF1F000F00F0082
:1008100004432C8106B0BDE8F08700000038014099
:1008200000BFFEE710B5002A06DA22F00042D21D12
:1008300022F00703102203E0D21C22F003030C2253
:1008400013B19C188C4201D9012010BD024401440F
:100850008360C0E90021C91AD018884202D810600C
:100860000246F9E70020106010BD000010B50446F4
:1008700000F090FE002805D04FF6FF71DFF808C0A9
:10088000206800DF10BD00007D10000810B5044690
:1008900000F080FE002803D0DFF808C0206800DFE9
:1008A00010BD0000990F000870470000084800685C
:1008B000C0010BD507480068C00707D0054880383D
:1008C0000068002802DA044901200870704700001F
:1008D000FCED00E0800E00E0300000204FF06042B0
:1008E000D36F002BFCD0436BD367D36F002BFCD0AE
:1008F000C07840EA0120A2F87C0070474FF06041C8
:10090000CA6F002AFCD081F87C00704770B506469B
:100910000C46032C01D1012505E0042C01D1002552
:1009200001E0022070BD012E04D0022E08D0032E5B
:1009300010D10AE0294644F20400FFF7DDFD0BE088
:1009400029460820FFF7D8FD06E029464020FFF79A
:10095000D3FD01E00220E5E700BF0120E2E700004F
:1009600070B505460C46012D02D0022D1CD10DE0BC
:10097000052C04D120210F48FFF7B6FD05E0062C19
:1009800003D120210B48FFF7ADFD0FE0052C04D16A
:1009900020210948FFF7A8FD05E0062C03D12021FE
:1009A0000548FFF79FFD01E0022070BD00BF012058
:1009B000FBE70000000C014000180140F8B50646B6
:1009C0000D46032D01D1012405E0042D01D10024A1
:1009D00001E00220F8BD012E02D0022E30D117E036
:1009E00029460220FFF792FF012C10D12020ADF8FC
:1009F000000010208DF8030003208DF802006946E6
:100A00001248FFF7E6FC20211048FFF76DFD19E0C2
:100A100029460320FFF77AFF012C10D12020ADF8E2
:100A2000000010208DF8030003208DF802006946B5
:100A30000748FFF7CEFC20210548FFF755FD01E0F0
:100A40000220C7E700BF0120C4E70000000C0140FE
:100A5000001801400FB430B585B00D9C032C01D1B6
:100A600001250CE0042C08D100213848FFF760FE76
:100A7000012005B030BC5DF814FB0220F9E72146E7
:100A80000120FFF743FF099800909DF828000128F6
:100A900003D10020ADF8040006E09DF828000228EC
:100AA00002D1C002ADF804009DF82900012803D14D
:100AB0000020ADF8060006E09DF82900022802D1CA
:100AC0000003ADF806009DF82A00022802D140027A
:100AD000ADF808009DF82A00012804D14FF4C06049
:100AE000ADF8080002E00020ADF808000020ADF8E5
:100AF0000C000C20ADF80A0069461448FFF724FEEC
:100B00009DF8200001281CD14002ADF81000032000
:100B10008DF8120018208DF8130004A90C48FFF777
:100B200058FC4FF48060ADF8100004208DF81300DD
:100B300004A90748FFF74DFC29460448FFF7F8FDD4
:100B400001E0022095E700BF012092E70038014054
:100B50000008014000231A4605210A48DFF828C092
:100B600000DF0A49086000231A460A210848DFF816
:100B700018C000DF0749086002E0DFF81CC000DF92
:100B8000FBE70000A5150008D514000800000020B0
:100B9000CD15000804000020651500080321012080
:100BA000FFF70CFF03210220FFF708FFFFF714FBFC
:100BB000002211460248DFF80CC000DF00BFFEE74C
:100BC000550B00080113000800BFFEE700BFFEE759
:100BD000074801684FF0E020416100218161072151
:100BE00001610448016841F07F410160401770478E
:100BF0001416000820ED00E07047704750E8001F11
:100C000031B10B6840E80032002AF7D1084670473E
:100C1000BFF32F8FFAE7000070B50D46002812D001
:100C20004FF6FF71084C884204D2226801461046F4
:100C300000F096FA20684570044800F0C3F8BDE85B
:100C4000704000F049BB70BD240000205413002008
:100C50000F4810B50D4942680E480B680068934272
:100C600004D00A60CB88421E1A448A808A8880B2E7
:100C700082420AD100200860054800F0A3F801462E
:100C8000BDE81040024800F08FBA10BD3C000020C3
:100C9000541300202C00002070B51A4DE86800287D
:100CA0002ED0A88A401EA882002623E0A06838B172
:100CB00061684160606810B1A16881606660A6608B
:100CC00010482146183800F06FFAA08AA882607890
:100CD000042804D10C49E08A09880844A082012034
:100CE000607084F82500E068E860E06808B105619C
:100CF000E6602661A88A002802D1EC68002CD5D1D4
:100D000070BD00006C1300202C00002070B50400A2
:100D10000FD00D4DA17801262868827891420CD918
:100D200000F05EFA286846702046BDE8704000F08A
:100D3000D3BA064800F046F8F7E766702146BDE8EA
:100D40007040024800F030BA240000205413002004
:100D50000321FFF761BF000010B50446008B084374
:100D600020836278618B062A16D0052A17D10842A3
:100D700015D001EA0002628388432083204600F0F8
:100D800053FA01206070022084F825002146BDE856
:100D90001040034800F008BA31EA0002ECD010BD60
:100DA00054130020814202D342688A4201D80120B4
:100DB000704750E8002F0A6040E80012002AF8D17E
:100DC000002070470146406842684A600B78002264
:100DD000022B05D0012B03D0032B01D042607047BA
:100DE00043680BB199604260826070470649074BC7
:100DF00048681B6882789B789A4202D142684A60B0
:100E00007047002070470000541300202400002089
:100E100070B5044600201546207001226270A17052
:100E200084F824106060A060E06020612062A082ED
:100E3000E0822083608384F8250084F82600208DDA
:100E400018B90548FFF7DAFE206329462046BDE8B9
:100E5000704000F00FB80000B001002003480021EE
:100E6000016003490988C180704700003C000020F0
:100E70001016000810B5028D920803D10F4A12888F
:100E8000C2F38D02036B03EB8202530700D5121FDE
:100E90004FF0807342E9021300231C46B2F1400276
:100EA00042F823405B1C0E2BFAD3C3691362C26263
:100EB0004163006B0249016010BD00000C16000880
:100EC000A52E5AE22DE9F041044640680F464FF046
:100ED000000804F10C0620B1617802291DD0A08918
:100EE000E8B3A089E18988424ED2208904EB8000D2
:100EF000C0F81070D6E85F0F401C81B2C6E8501FE2
:100F00000028F7D12089401C80B22081E1898842E5
:100F100001D1A4F80880BDE8F081406800B101204B
:100F200060702046FFF74EFF80F825802289054635
:100F300004EB8202C0694146C2F81000D6E85F0F98
:100F4000401C82B2C6E8502F0028F7D12089401CEF
:100F500080B22081E28990420BD1218109E0FFE734
:100F60002046FFF72FFF0546C0690421076085F87A
:100F7000251001206870284600F056F92946BDE882
:100F8000F041044800F010B9BDE8F0410320FFF73C
:100F90001BBE0000541300202DE9F0470446408892
:100FA00020B1344DA1682A68914202D0FF20BDE8EB
:100FB000F087401E0004000C608059D12968086A3F
:100FC000A04209D1E068086208E0C268A24202D1EA
:100FD000E268C26002E010460028F6D191F82400D1
:100FE0000A6A06E053681BB19B78834200D9184611
:100FF000D268002AF6D18870DFF87C80616891465B
:10100000012741B32046FFF7DDFE0646052086F89E
:101010002500304600F008F96780A660306AE0607D
:1010200034622968D8F804008A788078824201D333
:1010300030460AE0104800F0B7F831460E4800F09C
:10104000B3F828684770777010E0FFF75FFE2968F3
:1010500081F825900CE0D8F804108A78296882423B
:1010600006D9054800F0A0F8286847700020ECE792
:1010700000209CE7240000205413002070B5184D78
:101080000E4604464188286839B1A168814209D1D9
:101090006088401C6080002070BDA060016AE16033
:1010A0000462F5E776B18A788078824203D288704C
:1010B000A06800F09FF8606830B12046296800F011
:1010C00073F808E0012070BD28686060296800207E
:1010D00048602868846009213046FFF79DFDF1E7EC
:1010E0002400002070B51B4801210268517000687F
:1010F00000F076F8184D6C7818E000BF05EBC401DD
:1011000048680278EAB1012A20D000F0B9F8E878FE
:10111000641C844200D100240F48801CD0E84F1F7B
:10112000491EC9B2C0E8421F002AF7D1A87800289A
:10113000E4D16C700948FFF745FEBDE8704000F04F
:10114000CBB8098989B2FFF707FEE0E78968FFF7A6
:10115000B9FEDCE724000020C00F0020541300205B
:10116000104A10B5D368ABB113469B8A03E08CB12B
:101170002246A48A2344D4688B42F8D3C460D0604A
:101180000261C46804B12061591A8182908A401AB0
:10119000908210BD0024C460D060C91A026191829F
:1011A000848210BD6C13002030B502780023022A1F
:1011B00003D0012A01D0032A00D101238C7800E05A
:1011C0001046426812B19578A542F9D24A60416052
:1011D0001BB102B19160886030BD0020FBE70000C8
:1011E00003494A68426000228260486070470000FC
:1011F0005413002010B5836804462BB96078012889
:101200000ED1084B03E09B6818780028FBD02046DD
:1012100000F01EF82146BDE810401846FFF7C4BF95
:1012200010BD00005413002010B5016900290ED034
:10123000C268CA60C36800223BB18B8A848A234497
:101240008B82C3681961C26000E08A82026110BDAE
:10125000816839B142684A604168002901D08068DC
:1012600088607047054906E04A68824202D14068BA
:101270004860704711460029F6D17047541300208A
:1012800010B5416879B1FFF79DFD0446FFF7CCFF2B
:1012900001206070032084F825002146BDE810403D
:1012A0000348FFF781BF4188491C418010BD000001
:1012B0005413002006480068D0E90B10814203D384
:1012C00000680449884202D00120FFF77DBC7047C6
:1012D00024000020A52E5AE20749022248604270ED
:1012E000064A1278002A05D006C98A4202D0C07880
:1012F000FFF704BB704700002400002030000020EE
:101300002DE9F047164688468146FFF7CFFA0020C0
:1013100004463E4A3E4902E042F82040401C0B8809
:101320009842F9D33B48382201883B48FFF77AFAC4
:101330003A48008880B240F0004239480168394894
:10134000FFF770FA38480822018838480068FFF72C
:1013500069FA374FFF25374AFD703C850021384632
:10136000FFF756FD34480421017044603348017092
:10137000C46004618482F86A2030FEF727FF304899
:1013800031490760022078702E4804704470097853
:10139000C170FFF763FD2D48016841F47F010160D2
:1013A0000068290601EA00202849C0431439B0FA30
:1013B00080F00968C0F10800C1F30221814200DB1E
:1013C000481C2249091F0B686FF08072824063F34A
:1013D00017020A60FFF7FCFB1D49002808600DDBBF
:1013E00000F1E02181F8005400F01F02012191403A
:1013F0004011800000F1E020C0F800113246414663
:101400004846BDE8F047002300F064B844100020CF
:101410000816000824160008500000200C160008CA
:1014200028160008B00100202E1600081C0000201D
:101430001C130020CD0B0008541300206C13002057
:1014400024000020C00F00202C16000820ED00E032
:10145000380000200C4810B5026801215170006866
:10146000FFF7BEFEFFF7F4FB08480168491C016066
:10147000FFF712FC00F00EF80548FFF7A3FCBDE8EB
:101480001040FFF729BF0000240000202C0000209E
:101490005413002070B50D4C2068002815D0A0888A
:1014A0000B4E401EA0800AE0E888FFF7A6FBA88844
:1014B000A0802868206029463068FFF773FCA08868
:1014C000002802D12568002DEED170BD4400002017
:1014D0001C0000202DE9F0411E46174680460C46B0
:1014E00011F0FF0F00D14C1C1948FFF787FB0500D6
:1014F0002BD0200A2F632885E1B242462846EE61B0
:10150000FFF786FC01241348134905E000EB840231
:1015100052F8042C22B1641C0A889442F6D90024A3
:1015200000EB8400E6B240F8045C0C48EE700078F2
:1015300018B101212846FFF7D1F92846FFF7E6FB4D
:101540000748006880F825602046BDE8F08100006B
:101550005000002044100020081600083000002031
:101560002400002070B5FFF741FC04000CD0074DAB
:1015700007482968FFF718FE2968012048702046AF
:10158000BDE87040FFF7A8BE70BD00002400002039
:101590005413002002480068002800D0C07870472B
:1015A000240000200FE005210120FFF7D9F9642075
:1015B000DFF814C000DF06210120FFF7D1F9642015
:1015C000DFF804C000DFEEE7510D000888B000BF6F
:1015D0004FF41650049001208DF814008DF80C0083
:1015E0008DF8150003208DF81600019007980090E3
:1015F00003A80FC8FFF72EFA03E06420DFF804C049
:1016000000DFFAE7510D00080600000000020001AB
:10161000050001007FFC0A00000000001027000008
:10162000000000005C010000100E0000100000002F
:101630004B00040054160008000000204C0000007D
:101640006C010008A01600084C0000209C19000046
:1016500088010008000000000000000000000000F9
:101660000102030401020304060708090204060834
:10167000000000000000000000000000000000006A
:10168000000000000000000000000000000000005A
:10169000000000000000000000000000000000004A
:0400000508000131BD
:00000001FF
